{
  "contractName": "CowCoin",
  "abi": [
    {
      "inputs": [],
      "stateMutability": "nonpayable",
      "type": "constructor"
    },
    {
      "anonymous": false,
      "inputs": [
        {
          "indexed": true,
          "internalType": "address",
          "name": "owner",
          "type": "address"
        },
        {
          "indexed": true,
          "internalType": "address",
          "name": "approved",
          "type": "address"
        },
        {
          "indexed": true,
          "internalType": "uint256",
          "name": "tokenId",
          "type": "uint256"
        }
      ],
      "name": "Approval",
      "type": "event"
    },
    {
      "anonymous": false,
      "inputs": [
        {
          "indexed": true,
          "internalType": "address",
          "name": "owner",
          "type": "address"
        },
        {
          "indexed": true,
          "internalType": "address",
          "name": "operator",
          "type": "address"
        },
        {
          "indexed": false,
          "internalType": "bool",
          "name": "approved",
          "type": "bool"
        }
      ],
      "name": "ApprovalForAll",
      "type": "event"
    },
    {
      "anonymous": false,
      "inputs": [
        {
          "indexed": false,
          "internalType": "uint256",
          "name": "id",
          "type": "uint256"
        },
        {
          "indexed": false,
          "internalType": "string",
          "name": "tokendid",
          "type": "string"
        },
        {
          "indexed": false,
          "internalType": "string",
          "name": "cowCertlist",
          "type": "string"
        },
        {
          "indexed": false,
          "internalType": "string",
          "name": "imgPath",
          "type": "string"
        }
      ],
      "name": "TaskCreateCowCert",
      "type": "event"
    },
    {
      "anonymous": false,
      "inputs": [
        {
          "indexed": false,
          "internalType": "uint256",
          "name": "userId",
          "type": "uint256"
        },
        {
          "indexed": false,
          "internalType": "address",
          "name": "government",
          "type": "address"
        },
        {
          "indexed": false,
          "internalType": "string",
          "name": "username",
          "type": "string"
        }
      ],
      "name": "TaskCreatedadmin",
      "type": "event"
    },
    {
      "anonymous": false,
      "inputs": [
        {
          "indexed": true,
          "internalType": "address",
          "name": "from",
          "type": "address"
        },
        {
          "indexed": true,
          "internalType": "address",
          "name": "to",
          "type": "address"
        },
        {
          "indexed": true,
          "internalType": "uint256",
          "name": "tokenId",
          "type": "uint256"
        }
      ],
      "name": "Transfer",
      "type": "event"
    },
    {
      "inputs": [
        {
          "internalType": "address",
          "name": "to",
          "type": "address"
        },
        {
          "internalType": "uint256",
          "name": "tokenId",
          "type": "uint256"
        }
      ],
      "name": "approve",
      "outputs": [],
      "stateMutability": "nonpayable",
      "type": "function"
    },
    {
      "inputs": [
        {
          "internalType": "address",
          "name": "owner",
          "type": "address"
        }
      ],
      "name": "balanceOf",
      "outputs": [
        {
          "internalType": "uint256",
          "name": "",
          "type": "uint256"
        }
      ],
      "stateMutability": "view",
      "type": "function",
      "constant": true
    },
    {
      "inputs": [
        {
          "internalType": "uint256",
          "name": "",
          "type": "uint256"
        }
      ],
      "name": "blacklistedCowCert",
      "outputs": [
        {
          "internalType": "uint256",
          "name": "id",
          "type": "uint256"
        },
        {
          "internalType": "string",
          "name": "tokendId",
          "type": "string"
        },
        {
          "internalType": "string",
          "name": "cowCertlist",
          "type": "string"
        },
        {
          "internalType": "string",
          "name": "imgPath",
          "type": "string"
        }
      ],
      "stateMutability": "view",
      "type": "function",
      "constant": true
    },
    {
      "inputs": [
        {
          "internalType": "uint256",
          "name": "",
          "type": "uint256"
        }
      ],
      "name": "blockCowcert",
      "outputs": [
        {
          "internalType": "bool",
          "name": "",
          "type": "bool"
        }
      ],
      "stateMutability": "view",
      "type": "function",
      "constant": true
    },
    {
      "inputs": [],
      "name": "cowCertCount",
      "outputs": [
        {
          "internalType": "uint256",
          "name": "",
          "type": "uint256"
        }
      ],
      "stateMutability": "view",
      "type": "function",
      "constant": true
    },
    {
      "inputs": [
        {
          "internalType": "uint256",
          "name": "tokenId",
          "type": "uint256"
        }
      ],
      "name": "getApproved",
      "outputs": [
        {
          "internalType": "address",
          "name": "",
          "type": "address"
        }
      ],
      "stateMutability": "view",
      "type": "function",
      "constant": true
    },
    {
      "inputs": [],
      "name": "goverCount",
      "outputs": [
        {
          "internalType": "uint256",
          "name": "",
          "type": "uint256"
        }
      ],
      "stateMutability": "view",
      "type": "function",
      "constant": true
    },
    {
      "inputs": [
        {
          "internalType": "address",
          "name": "owner",
          "type": "address"
        },
        {
          "internalType": "address",
          "name": "operator",
          "type": "address"
        }
      ],
      "name": "isApprovedForAll",
      "outputs": [
        {
          "internalType": "bool",
          "name": "",
          "type": "bool"
        }
      ],
      "stateMutability": "view",
      "type": "function",
      "constant": true
    },
    {
      "inputs": [],
      "name": "name",
      "outputs": [
        {
          "internalType": "string",
          "name": "",
          "type": "string"
        }
      ],
      "stateMutability": "view",
      "type": "function",
      "constant": true
    },
    {
      "inputs": [
        {
          "internalType": "uint256",
          "name": "tokenId",
          "type": "uint256"
        }
      ],
      "name": "ownerOf",
      "outputs": [
        {
          "internalType": "address",
          "name": "",
          "type": "address"
        }
      ],
      "stateMutability": "view",
      "type": "function",
      "constant": true
    },
    {
      "inputs": [
        {
          "internalType": "address",
          "name": "operator",
          "type": "address"
        },
        {
          "internalType": "bool",
          "name": "approved",
          "type": "bool"
        }
      ],
      "name": "setApprovalForAll",
      "outputs": [],
      "stateMutability": "nonpayable",
      "type": "function"
    },
    {
      "inputs": [
        {
          "internalType": "bytes4",
          "name": "interfaceId",
          "type": "bytes4"
        }
      ],
      "name": "supportsInterface",
      "outputs": [
        {
          "internalType": "bool",
          "name": "",
          "type": "bool"
        }
      ],
      "stateMutability": "view",
      "type": "function",
      "constant": true
    },
    {
      "inputs": [],
      "name": "symbol",
      "outputs": [
        {
          "internalType": "string",
          "name": "",
          "type": "string"
        }
      ],
      "stateMutability": "view",
      "type": "function",
      "constant": true
    },
    {
      "inputs": [
        {
          "internalType": "uint256",
          "name": "",
          "type": "uint256"
        }
      ],
      "name": "taskcows",
      "outputs": [
        {
          "internalType": "uint256",
          "name": "userId",
          "type": "uint256"
        },
        {
          "internalType": "address",
          "name": "government",
          "type": "address"
        },
        {
          "internalType": "string",
          "name": "username",
          "type": "string"
        }
      ],
      "stateMutability": "view",
      "type": "function",
      "constant": true
    },
    {
      "inputs": [
        {
          "internalType": "uint256",
          "name": "tokenId",
          "type": "uint256"
        }
      ],
      "name": "tokenURI",
      "outputs": [
        {
          "internalType": "string",
          "name": "",
          "type": "string"
        }
      ],
      "stateMutability": "view",
      "type": "function",
      "constant": true
    },
    {
      "inputs": [
        {
          "internalType": "address",
          "name": "from",
          "type": "address"
        },
        {
          "internalType": "address",
          "name": "to",
          "type": "address"
        },
        {
          "internalType": "uint256",
          "name": "tokenId",
          "type": "uint256"
        }
      ],
      "name": "transferFrom",
      "outputs": [],
      "stateMutability": "nonpayable",
      "type": "function"
    },
    {
      "inputs": [
        {
          "internalType": "address",
          "name": "_government",
          "type": "address"
        },
        {
          "internalType": "string",
          "name": "_username",
          "type": "string"
        }
      ],
      "name": "addAdmin",
      "outputs": [],
      "stateMutability": "nonpayable",
      "type": "function"
    },
    {
      "inputs": [
        {
          "internalType": "address",
          "name": "_realEstateOwner",
          "type": "address"
        },
        {
          "internalType": "string",
          "name": "_tokenId",
          "type": "string"
        },
        {
          "internalType": "string",
          "name": "_cowCertlist",
          "type": "string"
        },
        {
          "internalType": "string",
          "name": "_imgPath",
          "type": "string"
        }
      ],
      "name": "tokenizedCowCert",
      "outputs": [],
      "stateMutability": "nonpayable",
      "type": "function"
    },
    {
      "inputs": [
        {
          "internalType": "uint256",
          "name": "_tokenId",
          "type": "uint256"
        }
      ],
      "name": "disableTransfer",
      "outputs": [],
      "stateMutability": "nonpayable",
      "type": "function"
    },
    {
      "inputs": [
        {
          "internalType": "uint256",
          "name": "_tokenId",
          "type": "uint256"
        }
      ],
      "name": "enableTransfer",
      "outputs": [],
      "stateMutability": "nonpayable",
      "type": "function"
    },
    {
      "inputs": [
        {
          "internalType": "address",
          "name": "_from",
          "type": "address"
        },
        {
          "internalType": "address",
          "name": "_to",
          "type": "address"
        },
        {
          "internalType": "uint256",
          "name": "_tokenId",
          "type": "uint256"
        }
      ],
      "name": "safeTransferFrom",
      "outputs": [],
      "stateMutability": "nonpayable",
      "type": "function"
    },
    {
      "inputs": [
        {
          "internalType": "address",
          "name": "from",
          "type": "address"
        },
        {
          "internalType": "address",
          "name": "to",
          "type": "address"
        },
        {
          "internalType": "uint256",
          "name": "tokenId",
          "type": "uint256"
        },
        {
          "internalType": "bytes",
          "name": "_data",
          "type": "bytes"
        }
      ],
      "name": "safeTransferFrom",
      "outputs": [],
      "stateMutability": "nonpayable",
      "type": "function"
    }
  ],
  "bytecode": "0x6080604052600060065560006007553480156200001b57600080fd5b506040518060400160405280600c81526020017f536d617274436f776365727400000000000000000000000000000000000000008152506040518060400160405280600c81526020017f534d415254434f57434552540000000000000000000000000000000000000000815250816000908162000099919062000417565b508060019081620000ab919062000417565b505050604051806060016040528060065481526020013373ffffffffffffffffffffffffffffffffffffffff1681526020016040518060400160405280600881526020017f53757261646174680000000000000000000000000000000000000000000000008152508152506009600060065481526020019081526020016000206000820151816000015560208201518160010160006101000a81548173ffffffffffffffffffffffffffffffffffffffff021916908373ffffffffffffffffffffffffffffffffffffffff160217905550604082015181600201908162000193919062000417565b50905050620004fe565b600081519050919050565b7f4e487b7100000000000000000000000000000000000000000000000000000000600052604160045260246000fd5b7f4e487b7100000000000000000000000000000000000000000000000000000000600052602260045260246000fd5b600060028204905060018216806200021f57607f821691505b602082108103620002355762000234620001d7565b5b50919050565b60008190508160005260206000209050919050565b60006020601f8301049050919050565b600082821b905092915050565b6000600883026200029f7fffffffffffffffffffffffffffffffffffffffffffffffffffffffffffffffff8262000260565b620002ab868362000260565b95508019841693508086168417925050509392505050565b6000819050919050565b6000819050919050565b6000620002f8620002f2620002ec84620002c3565b620002cd565b620002c3565b9050919050565b6000819050919050565b6200031483620002d7565b6200032c6200032382620002ff565b8484546200026d565b825550505050565b600090565b6200034362000334565b6200035081848462000309565b505050565b5b8181101562000378576200036c60008262000339565b60018101905062000356565b5050565b601f821115620003c75762000391816200023b565b6200039c8462000250565b81016020851015620003ac578190505b620003c4620003bb8562000250565b83018262000355565b50505b505050565b600082821c905092915050565b6000620003ec60001984600802620003cc565b1980831691505092915050565b6000620004078383620003d9565b9150826002028217905092915050565b62000422826200019d565b67ffffffffffffffff8111156200043e576200043d620001a8565b5b6200044a825462000206565b620004578282856200037c565b600060209050601f8311600181146200048f57600084156200047a578287015190505b620004868582620003f9565b865550620004f6565b601f1984166200049f866200023b565b60005b82811015620004c957848901518255600182019150602085019450602081019050620004a2565b86831015620004e95784890151620004e5601f891682620003d9565b8355505b6001600288020188555050505b505050505050565b6137a0806200050e6000396000f3fe608060405234801561001057600080fd5b50600436106101425760003560e01c806395d89b41116100b8578063d16856ca1161007c578063d16856ca14610387578063d5dbc3d5146103a3578063e0be0f57146103d6578063e59989f5146103f4578063e985e9c514610410578063f11a06841461044057610142565b806395d89b41146102e5578063a22cb46514610303578063b88d4fde1461031f578063c3c88a1d1461033b578063c87b56dd1461035757610142565b80632cb3939a1161010a5780632cb3939a146101fd5780632d6acafb1461021b57806342842e0e1461024d5780636352211e146102695780636f7153781461029957806370a08231146102b557610142565b806301ffc9a71461014757806306fdde0314610177578063081812fc14610195578063095ea7b3146101c557806323b872dd146101e1575b600080fd5b610161600480360381019061015c91906121aa565b610470565b60405161016e91906121f2565b60405180910390f35b61017f610552565b60405161018c919061229d565b60405180910390f35b6101af60048036038101906101aa91906122f5565b6105e4565b6040516101bc9190612363565b60405180910390f35b6101df60048036038101906101da91906123aa565b610669565b005b6101fb60048036038101906101f691906123ea565b610780565b005b6102056107e0565b604051610212919061244c565b60405180910390f35b610235600480360381019061023091906122f5565b6107e6565b60405161024493929190612467565b60405180910390f35b610267600480360381019061026291906123ea565b6108b8565b005b610283600480360381019061027e91906122f5565b6108f9565b6040516102909190612363565b60405180910390f35b6102b360048036038101906102ae91906125da565b6109aa565b005b6102cf60048036038101906102ca9190612695565b610bc8565b6040516102dc919061244c565b60405180910390f35b6102ed610c7f565b6040516102fa919061229d565b60405180910390f35b61031d600480360381019061031891906126ee565b610d11565b005b610339600480360381019061033491906127cf565b610e91565b005b610355600480360381019061035091906122f5565b610ef3565b005b610371600480360381019061036c91906122f5565b611050565b60405161037e919061229d565b60405180910390f35b6103a1600480360381019061039c9190612852565b6110f7565b005b6103bd60048036038101906103b891906122f5565b611330565b6040516103cd94939291906128ae565b60405180910390f35b6103de6114f8565b6040516103eb919061244c565b60405180910390f35b61040e600480360381019061040991906122f5565b6114fe565b005b61042a60048036038101906104259190612908565b61165b565b60405161043791906121f2565b60405180910390f35b61045a600480360381019061045591906122f5565b6116ef565b60405161046791906121f2565b60405180910390f35b60007f80ac58cd000000000000000000000000000000000000000000000000000000007bffffffffffffffffffffffffffffffffffffffffffffffffffffffff1916827bffffffffffffffffffffffffffffffffffffffffffffffffffffffff1916148061053b57507f5b5e139f000000000000000000000000000000000000000000000000000000007bffffffffffffffffffffffffffffffffffffffffffffffffffffffff1916827bffffffffffffffffffffffffffffffffffffffffffffffffffffffff1916145b8061054b575061054a8261170f565b5b9050919050565b60606000805461056190612977565b80601f016020809104026020016040519081016040528092919081815260200182805461058d90612977565b80156105da5780601f106105af576101008083540402835291602001916105da565b820191906000526020600020905b8154815290600101906020018083116105bd57829003601f168201915b5050505050905090565b60006105ef82611779565b61062e576040517f08c379a000000000000000000000000000000000000000000000000000000000815260040161062590612a1a565b60405180910390fd5b6004600083815260200190815260200160002060009054906101000a900473ffffffffffffffffffffffffffffffffffffffff169050919050565b6000610674826108f9565b90508073ffffffffffffffffffffffffffffffffffffffff168373ffffffffffffffffffffffffffffffffffffffff16036106e4576040517f08c379a00000000000000000000000000000000000000000000000000000000081526004016106db90612aac565b60405180910390fd5b8073ffffffffffffffffffffffffffffffffffffffff166107036117e5565b73ffffffffffffffffffffffffffffffffffffffff16148061073257506107318161072c6117e5565b61165b565b5b610771576040517f08c379a000000000000000000000000000000000000000000000000000000000815260040161076890612b3e565b60405180910390fd5b61077b83836117ed565b505050565b61079161078b6117e5565b826118a6565b6107d0576040517f08c379a00000000000000000000000000000000000000000000000000000000081526004016107c790612bd0565b60405180910390fd5b6107db838383611984565b505050565b60075481565b60096020528060005260406000206000915090508060000154908060010160009054906101000a900473ffffffffffffffffffffffffffffffffffffffff169080600201805461083590612977565b80601f016020809104026020016040519081016040528092919081815260200182805461086190612977565b80156108ae5780601f10610883576101008083540402835291602001916108ae565b820191906000526020600020905b81548152906001019060200180831161089157829003601f168201915b5050505050905083565b60001515600b600083815260200190815260200160002060009054906101000a900460ff161515146108e957600080fd5b6108f4838383611bdf565b505050565b6000806002600084815260200190815260200160002060009054906101000a900473ffffffffffffffffffffffffffffffffffffffff169050600073ffffffffffffffffffffffffffffffffffffffff168173ffffffffffffffffffffffffffffffffffffffff16036109a1576040517f08c379a000000000000000000000000000000000000000000000000000000000815260040161099890612c62565b60405180910390fd5b80915050919050565b60005b6006548111610bc1573373ffffffffffffffffffffffffffffffffffffffff166009600083815260200190815260200160002060010160009054906101000a900473ffffffffffffffffffffffffffffffffffffffff1673ffffffffffffffffffffffffffffffffffffffff1603610bae576009600082815260200190815260200160002060010160009054906101000a900473ffffffffffffffffffffffffffffffffffffffff1673ffffffffffffffffffffffffffffffffffffffff163373ffffffffffffffffffffffffffffffffffffffff1614610ac3576040517f08c379a0000000000000000000000000000000000000000000000000000000008152600401610aba90612cce565b60405180910390fd5b60076000815480929190610ad690612d1d565b91905055506040518060800160405280600754815260200185815260200184815260200183815250600a60006007548152602001908152602001600020600082015181600001556020820151816001019081610b329190612f11565b506040820151816002019081610b489190612f11565b506060820151816003019081610b5e9190612f11565b50905050610b6e85600754611bff565b7fdd9dd323e29f8cd59a49751518bc080d5f1dfea3b949fbea9b257215a4e4fc6c600754858585604051610ba594939291906128ae565b60405180910390a15b8080610bb990612d1d565b9150506109ad565b5050505050565b60008073ffffffffffffffffffffffffffffffffffffffff168273ffffffffffffffffffffffffffffffffffffffff1603610c38576040517f08c379a0000000000000000000000000000000000000000000000000000000008152600401610c2f90613055565b60405180910390fd5b600360008373ffffffffffffffffffffffffffffffffffffffff1673ffffffffffffffffffffffffffffffffffffffff168152602001908152602001600020549050919050565b606060018054610c8e90612977565b80601f0160208091040260200160405190810160405280929190818152602001828054610cba90612977565b8015610d075780601f10610cdc57610100808354040283529160200191610d07565b820191906000526020600020905b815481529060010190602001808311610cea57829003601f168201915b5050505050905090565b610d196117e5565b73ffffffffffffffffffffffffffffffffffffffff168273ffffffffffffffffffffffffffffffffffffffff1603610d86576040517f08c379a0000000000000000000000000000000000000000000000000000000008152600401610d7d906130c1565b60405180910390fd5b8060056000610d936117e5565b73ffffffffffffffffffffffffffffffffffffffff1673ffffffffffffffffffffffffffffffffffffffff16815260200190815260200160002060008473ffffffffffffffffffffffffffffffffffffffff1673ffffffffffffffffffffffffffffffffffffffff16815260200190815260200160002060006101000a81548160ff0219169083151502179055508173ffffffffffffffffffffffffffffffffffffffff16610e406117e5565b73ffffffffffffffffffffffffffffffffffffffff167f17307eab39ab6107e8899845ad3d59bd9653f200f220920489ca2b5937696c3183604051610e8591906121f2565b60405180910390a35050565b610ea2610e9c6117e5565b836118a6565b610ee1576040517f08c379a0000000000000000000000000000000000000000000000000000000008152600401610ed890612bd0565b60405180910390fd5b610eed84848484611dcc565b50505050565b60005b600654811161104c573373ffffffffffffffffffffffffffffffffffffffff166009600083815260200190815260200160002060010160009054906101000a900473ffffffffffffffffffffffffffffffffffffffff1673ffffffffffffffffffffffffffffffffffffffff1603611039576009600082815260200190815260200160002060010160009054906101000a900473ffffffffffffffffffffffffffffffffffffffff1673ffffffffffffffffffffffffffffffffffffffff163373ffffffffffffffffffffffffffffffffffffffff161461100c576040517f08c379a000000000000000000000000000000000000000000000000000000000815260040161100390612cce565b60405180910390fd5b6001600b600084815260200190815260200160002060006101000a81548160ff0219169083151502179055505b808061104490612d1d565b915050610ef6565b5050565b606061105b82611779565b61109a576040517f08c379a000000000000000000000000000000000000000000000000000000000815260040161109190613153565b60405180910390fd5b60006110a4611e28565b905060008151116110c457604051806020016040528060008152506110ef565b806110ce84611e3f565b6040516020016110df9291906131af565b6040516020818303038152906040525b915050919050565b60005b600654811161132b573373ffffffffffffffffffffffffffffffffffffffff166009600083815260200190815260200160002060010160009054906101000a900473ffffffffffffffffffffffffffffffffffffffff1673ffffffffffffffffffffffffffffffffffffffff1603611318576009600082815260200190815260200160002060010160009054906101000a900473ffffffffffffffffffffffffffffffffffffffff1673ffffffffffffffffffffffffffffffffffffffff163373ffffffffffffffffffffffffffffffffffffffff1614611210576040517f08c379a00000000000000000000000000000000000000000000000000000000081526004016112079061321f565b60405180910390fd5b6006600081548092919061122390612d1d565b9190505550604051806060016040528060065481526020018473ffffffffffffffffffffffffffffffffffffffff168152602001838152506009600060065481526020019081526020016000206000820151816000015560208201518160010160006101000a81548173ffffffffffffffffffffffffffffffffffffffff021916908373ffffffffffffffffffffffffffffffffffffffff16021790555060408201518160020190816112d69190612f11565b509050507fef378b7ae33a273f09c904a9a8601d264935a173fd8aa7a9b00b89839df7fa6e600654848460405161130f93929190612467565b60405180910390a15b808061132390612d1d565b9150506110fa565b505050565b600a60205280600052604060002060009150905080600001549080600101805461135990612977565b80601f016020809104026020016040519081016040528092919081815260200182805461138590612977565b80156113d25780601f106113a7576101008083540402835291602001916113d2565b820191906000526020600020905b8154815290600101906020018083116113b557829003601f168201915b5050505050908060020180546113e790612977565b80601f016020809104026020016040519081016040528092919081815260200182805461141390612977565b80156114605780601f1061143557610100808354040283529160200191611460565b820191906000526020600020905b81548152906001019060200180831161144357829003601f168201915b50505050509080600301805461147590612977565b80601f01602080910402602001604051908101604052809291908181526020018280546114a190612977565b80156114ee5780601f106114c3576101008083540402835291602001916114ee565b820191906000526020600020905b8154815290600101906020018083116114d157829003601f168201915b5050505050905084565b60065481565b60005b6006548111611657573373ffffffffffffffffffffffffffffffffffffffff166009600083815260200190815260200160002060010160009054906101000a900473ffffffffffffffffffffffffffffffffffffffff1673ffffffffffffffffffffffffffffffffffffffff1603611644576009600082815260200190815260200160002060010160009054906101000a900473ffffffffffffffffffffffffffffffffffffffff1673ffffffffffffffffffffffffffffffffffffffff163373ffffffffffffffffffffffffffffffffffffffff1614611617576040517f08c379a000000000000000000000000000000000000000000000000000000000815260040161160e90612cce565b60405180910390fd5b6000600b600084815260200190815260200160002060006101000a81548160ff0219169083151502179055505b808061164f90612d1d565b915050611501565b5050565b6000600560008473ffffffffffffffffffffffffffffffffffffffff1673ffffffffffffffffffffffffffffffffffffffff16815260200190815260200160002060008373ffffffffffffffffffffffffffffffffffffffff1673ffffffffffffffffffffffffffffffffffffffff16815260200190815260200160002060009054906101000a900460ff16905092915050565b600b6020528060005260406000206000915054906101000a900460ff1681565b60007f01ffc9a7000000000000000000000000000000000000000000000000000000007bffffffffffffffffffffffffffffffffffffffffffffffffffffffff1916827bffffffffffffffffffffffffffffffffffffffffffffffffffffffff1916149050919050565b60008073ffffffffffffffffffffffffffffffffffffffff166002600084815260200190815260200160002060009054906101000a900473ffffffffffffffffffffffffffffffffffffffff1673ffffffffffffffffffffffffffffffffffffffff1614159050919050565b600033905090565b816004600083815260200190815260200160002060006101000a81548173ffffffffffffffffffffffffffffffffffffffff021916908373ffffffffffffffffffffffffffffffffffffffff160217905550808273ffffffffffffffffffffffffffffffffffffffff16611860836108f9565b73ffffffffffffffffffffffffffffffffffffffff167f8c5be1e5ebec7d5bd14f71427d1e84f3dd0314c0f7b2291e5b200ac8c7c3b92560405160405180910390a45050565b60006118b182611779565b6118f0576040517f08c379a00000000000000000000000000000000000000000000000000000000081526004016118e7906132b1565b60405180910390fd5b60006118fb836108f9565b90508073ffffffffffffffffffffffffffffffffffffffff168473ffffffffffffffffffffffffffffffffffffffff16148061196a57508373ffffffffffffffffffffffffffffffffffffffff16611952846105e4565b73ffffffffffffffffffffffffffffffffffffffff16145b8061197b575061197a818561165b565b5b91505092915050565b8273ffffffffffffffffffffffffffffffffffffffff166119a4826108f9565b73ffffffffffffffffffffffffffffffffffffffff16146119fa576040517f08c379a00000000000000000000000000000000000000000000000000000000081526004016119f190613343565b60405180910390fd5b600073ffffffffffffffffffffffffffffffffffffffff168273ffffffffffffffffffffffffffffffffffffffff1603611a69576040517f08c379a0000000000000000000000000000000000000000000000000000000008152600401611a60906133d5565b60405180910390fd5b611a74838383611f9f565b611a7f6000826117ed565b6001600360008573ffffffffffffffffffffffffffffffffffffffff1673ffffffffffffffffffffffffffffffffffffffff1681526020019081526020016000206000828254611acf91906133f5565b925050819055506001600360008473ffffffffffffffffffffffffffffffffffffffff1673ffffffffffffffffffffffffffffffffffffffff1681526020019081526020016000206000828254611b269190613429565b92505081905550816002600083815260200190815260200160002060006101000a81548173ffffffffffffffffffffffffffffffffffffffff021916908373ffffffffffffffffffffffffffffffffffffffff160217905550808273ffffffffffffffffffffffffffffffffffffffff168473ffffffffffffffffffffffffffffffffffffffff167fddf252ad1be2c89b69c2b068fc378daa952ba7f163c4a11628f55a4df523b3ef60405160405180910390a4505050565b611bfa83838360405180602001604052806000815250610e91565b505050565b600073ffffffffffffffffffffffffffffffffffffffff168273ffffffffffffffffffffffffffffffffffffffff1603611c6e576040517f08c379a0000000000000000000000000000000000000000000000000000000008152600401611c65906134a9565b60405180910390fd5b611c7781611779565b15611cb7576040517f08c379a0000000000000000000000000000000000000000000000000000000008152600401611cae90613515565b60405180910390fd5b611cc360008383611f9f565b6001600360008473ffffffffffffffffffffffffffffffffffffffff1673ffffffffffffffffffffffffffffffffffffffff1681526020019081526020016000206000828254611d139190613429565b92505081905550816002600083815260200190815260200160002060006101000a81548173ffffffffffffffffffffffffffffffffffffffff021916908373ffffffffffffffffffffffffffffffffffffffff160217905550808273ffffffffffffffffffffffffffffffffffffffff16600073ffffffffffffffffffffffffffffffffffffffff167fddf252ad1be2c89b69c2b068fc378daa952ba7f163c4a11628f55a4df523b3ef60405160405180910390a45050565b611dd7848484611984565b611de384848484611fa4565b611e22576040517f08c379a0000000000000000000000000000000000000000000000000000000008152600401611e19906135a7565b60405180910390fd5b50505050565b606060405180602001604052806000815250905090565b606060008203611e86576040518060400160405280600181526020017f30000000000000000000000000000000000000000000000000000000000000008152509050611f9a565b600082905060005b60008214611eb8578080611ea190612d1d565b915050600a82611eb191906135f6565b9150611e8e565b60008167ffffffffffffffff811115611ed457611ed36124af565b5b6040519080825280601f01601f191660200182016040528015611f065781602001600182028036833780820191505090505b5090505b60008514611f9357600182611f1f91906133f5565b9150600a85611f2e9190613627565b6030611f3a9190613429565b60f81b818381518110611f5057611f4f613658565b5b60200101907effffffffffffffffffffffffffffffffffffffffffffffffffffffffffffff1916908160001a905350600a85611f8c91906135f6565b9450611f0a565b8093505050505b919050565b505050565b6000611fc58473ffffffffffffffffffffffffffffffffffffffff1661212b565b1561211e578373ffffffffffffffffffffffffffffffffffffffff1663150b7a02611fee6117e5565b8786866040518563ffffffff1660e01b815260040161201094939291906136dc565b6020604051808303816000875af192505050801561204c57506040513d601f19601f82011682018060405250810190612049919061373d565b60015b6120ce573d806000811461207c576040519150601f19603f3d011682016040523d82523d6000602084013e612081565b606091505b5060008151036120c6576040517f08c379a00000000000000000000000000000000000000000000000000000000081526004016120bd906135a7565b60405180910390fd5b805181602001fd5b63150b7a0260e01b7bffffffffffffffffffffffffffffffffffffffffffffffffffffffff1916817bffffffffffffffffffffffffffffffffffffffffffffffffffffffff191614915050612123565b600190505b949350505050565b600080823b905060008111915050919050565b6000604051905090565b600080fd5b600080fd5b60007fffffffff0000000000000000000000000000000000000000000000000000000082169050919050565b61218781612152565b811461219257600080fd5b50565b6000813590506121a48161217e565b92915050565b6000602082840312156121c0576121bf612148565b5b60006121ce84828501612195565b91505092915050565b60008115159050919050565b6121ec816121d7565b82525050565b600060208201905061220760008301846121e3565b92915050565b600081519050919050565b600082825260208201905092915050565b60005b8381101561224757808201518184015260208101905061222c565b60008484015250505050565b6000601f19601f8301169050919050565b600061226f8261220d565b6122798185612218565b9350612289818560208601612229565b61229281612253565b840191505092915050565b600060208201905081810360008301526122b78184612264565b905092915050565b6000819050919050565b6122d2816122bf565b81146122dd57600080fd5b50565b6000813590506122ef816122c9565b92915050565b60006020828403121561230b5761230a612148565b5b6000612319848285016122e0565b91505092915050565b600073ffffffffffffffffffffffffffffffffffffffff82169050919050565b600061234d82612322565b9050919050565b61235d81612342565b82525050565b60006020820190506123786000830184612354565b92915050565b61238781612342565b811461239257600080fd5b50565b6000813590506123a48161237e565b92915050565b600080604083850312156123c1576123c0612148565b5b60006123cf85828601612395565b92505060206123e0858286016122e0565b9150509250929050565b60008060006060848603121561240357612402612148565b5b600061241186828701612395565b935050602061242286828701612395565b9250506040612433868287016122e0565b9150509250925092565b612446816122bf565b82525050565b6000602082019050612461600083018461243d565b92915050565b600060608201905061247c600083018661243d565b6124896020830185612354565b818103604083015261249b8184612264565b9050949350505050565b600080fd5b600080fd5b7f4e487b7100000000000000000000000000000000000000000000000000000000600052604160045260246000fd5b6124e782612253565b810181811067ffffffffffffffff82111715612506576125056124af565b5b80604052505050565b600061251961213e565b905061252582826124de565b919050565b600067ffffffffffffffff821115612545576125446124af565b5b61254e82612253565b9050602081019050919050565b82818337600083830152505050565b600061257d6125788461252a565b61250f565b905082815260208101848484011115612599576125986124aa565b5b6125a484828561255b565b509392505050565b600082601f8301126125c1576125c06124a5565b5b81356125d184826020860161256a565b91505092915050565b600080600080608085870312156125f4576125f3612148565b5b600061260287828801612395565b945050602085013567ffffffffffffffff8111156126235761262261214d565b5b61262f878288016125ac565b935050604085013567ffffffffffffffff8111156126505761264f61214d565b5b61265c878288016125ac565b925050606085013567ffffffffffffffff81111561267d5761267c61214d565b5b612689878288016125ac565b91505092959194509250565b6000602082840312156126ab576126aa612148565b5b60006126b984828501612395565b91505092915050565b6126cb816121d7565b81146126d657600080fd5b50565b6000813590506126e8816126c2565b92915050565b6000806040838503121561270557612704612148565b5b600061271385828601612395565b9250506020612724858286016126d9565b9150509250929050565b600067ffffffffffffffff821115612749576127486124af565b5b61275282612253565b9050602081019050919050565b600061277261276d8461272e565b61250f565b90508281526020810184848401111561278e5761278d6124aa565b5b61279984828561255b565b509392505050565b600082601f8301126127b6576127b56124a5565b5b81356127c684826020860161275f565b91505092915050565b600080600080608085870312156127e9576127e8612148565b5b60006127f787828801612395565b945050602061280887828801612395565b9350506040612819878288016122e0565b925050606085013567ffffffffffffffff81111561283a5761283961214d565b5b612846878288016127a1565b91505092959194509250565b6000806040838503121561286957612868612148565b5b600061287785828601612395565b925050602083013567ffffffffffffffff8111156128985761289761214d565b5b6128a4858286016125ac565b9150509250929050565b60006080820190506128c3600083018761243d565b81810360208301526128d58186612264565b905081810360408301526128e98185612264565b905081810360608301526128fd8184612264565b905095945050505050565b6000806040838503121561291f5761291e612148565b5b600061292d85828601612395565b925050602061293e85828601612395565b9150509250929050565b7f4e487b7100000000000000000000000000000000000000000000000000000000600052602260045260246000fd5b6000600282049050600182168061298f57607f821691505b6020821081036129a2576129a1612948565b5b50919050565b7f4552433732313a20617070726f76656420717565727920666f72206e6f6e657860008201527f697374656e7420746f6b656e0000000000000000000000000000000000000000602082015250565b6000612a04602c83612218565b9150612a0f826129a8565b604082019050919050565b60006020820190508181036000830152612a33816129f7565b9050919050565b7f4552433732313a20617070726f76616c20746f2063757272656e74206f776e6560008201527f7200000000000000000000000000000000000000000000000000000000000000602082015250565b6000612a96602183612218565b9150612aa182612a3a565b604082019050919050565b60006020820190508181036000830152612ac581612a89565b9050919050565b7f4552433732313a20617070726f76652063616c6c6572206973206e6f74206f7760008201527f6e6572206e6f7220617070726f76656420666f7220616c6c0000000000000000602082015250565b6000612b28603883612218565b9150612b3382612acc565b604082019050919050565b60006020820190508181036000830152612b5781612b1b565b9050919050565b7f4552433732313a207472616e736665722063616c6c6572206973206e6f74206f60008201527f776e6572206e6f7220617070726f766564000000000000000000000000000000602082015250565b6000612bba603183612218565b9150612bc582612b5e565b604082019050919050565b60006020820190508181036000830152612be981612bad565b9050919050565b7f4552433732313a206f776e657220717565727920666f72206e6f6e657869737460008201527f656e7420746f6b656e0000000000000000000000000000000000000000000000602082015250565b6000612c4c602983612218565b9150612c5782612bf0565b604082019050919050565b60006020820190508181036000830152612c7b81612c3f565b9050919050565b7f596f7520617265206e6f74204f776e6572210000000000000000000000000000600082015250565b6000612cb8601283612218565b9150612cc382612c82565b602082019050919050565b60006020820190508181036000830152612ce781612cab565b9050919050565b7f4e487b7100000000000000000000000000000000000000000000000000000000600052601160045260246000fd5b6000612d28826122bf565b91507fffffffffffffffffffffffffffffffffffffffffffffffffffffffffffffffff8203612d5a57612d59612cee565b5b600182019050919050565b60008190508160005260206000209050919050565b60006020601f8301049050919050565b600082821b905092915050565b600060088302612dc77fffffffffffffffffffffffffffffffffffffffffffffffffffffffffffffffff82612d8a565b612dd18683612d8a565b95508019841693508086168417925050509392505050565b6000819050919050565b6000612e0e612e09612e04846122bf565b612de9565b6122bf565b9050919050565b6000819050919050565b612e2883612df3565b612e3c612e3482612e15565b848454612d97565b825550505050565b600090565b612e51612e44565b612e5c818484612e1f565b505050565b5b81811015612e8057612e75600082612e49565b600181019050612e62565b5050565b601f821115612ec557612e9681612d65565b612e9f84612d7a565b81016020851015612eae578190505b612ec2612eba85612d7a565b830182612e61565b50505b505050565b600082821c905092915050565b6000612ee860001984600802612eca565b1980831691505092915050565b6000612f018383612ed7565b9150826002028217905092915050565b612f1a8261220d565b67ffffffffffffffff811115612f3357612f326124af565b5b612f3d8254612977565b612f48828285612e84565b600060209050601f831160018114612f7b5760008415612f69578287015190505b612f738582612ef5565b865550612fdb565b601f198416612f8986612d65565b60005b82811015612fb157848901518255600182019150602085019450602081019050612f8c565b86831015612fce5784890151612fca601f891682612ed7565b8355505b6001600288020188555050505b505050505050565b7f4552433732313a2062616c616e636520717565727920666f7220746865207a6560008201527f726f206164647265737300000000000000000000000000000000000000000000602082015250565b600061303f602a83612218565b915061304a82612fe3565b604082019050919050565b6000602082019050818103600083015261306e81613032565b9050919050565b7f4552433732313a20617070726f766520746f2063616c6c657200000000000000600082015250565b60006130ab601983612218565b91506130b682613075565b602082019050919050565b600060208201905081810360008301526130da8161309e565b9050919050565b7f4552433732314d657461646174613a2055524920717565727920666f72206e6f60008201527f6e6578697374656e7420746f6b656e0000000000000000000000000000000000602082015250565b600061313d602f83612218565b9150613148826130e1565b604082019050919050565b6000602082019050818103600083015261316c81613130565b9050919050565b600081905092915050565b60006131898261220d565b6131938185613173565b93506131a3818560208601612229565b80840191505092915050565b60006131bb828561317e565b91506131c7828461317e565b91508190509392505050565b7f596f75206e6f74206372656174652041646d696e000000000000000000000000600082015250565b6000613209601483612218565b9150613214826131d3565b602082019050919050565b60006020820190508181036000830152613238816131fc565b9050919050565b7f4552433732313a206f70657261746f7220717565727920666f72206e6f6e657860008201527f697374656e7420746f6b656e0000000000000000000000000000000000000000602082015250565b600061329b602c83612218565b91506132a68261323f565b604082019050919050565b600060208201905081810360008301526132ca8161328e565b9050919050565b7f4552433732313a207472616e73666572206f6620746f6b656e2074686174206960008201527f73206e6f74206f776e0000000000000000000000000000000000000000000000602082015250565b600061332d602983612218565b9150613338826132d1565b604082019050919050565b6000602082019050818103600083015261335c81613320565b9050919050565b7f4552433732313a207472616e7366657220746f20746865207a65726f2061646460008201527f7265737300000000000000000000000000000000000000000000000000000000602082015250565b60006133bf602483612218565b91506133ca82613363565b604082019050919050565b600060208201905081810360008301526133ee816133b2565b9050919050565b6000613400826122bf565b915061340b836122bf565b925082820390508181111561342357613422612cee565b5b92915050565b6000613434826122bf565b915061343f836122bf565b925082820190508082111561345757613456612cee565b5b92915050565b7f4552433732313a206d696e7420746f20746865207a65726f2061646472657373600082015250565b6000613493602083612218565b915061349e8261345d565b602082019050919050565b600060208201905081810360008301526134c281613486565b9050919050565b7f4552433732313a20746f6b656e20616c7265616479206d696e74656400000000600082015250565b60006134ff601c83612218565b915061350a826134c9565b602082019050919050565b6000602082019050818103600083015261352e816134f2565b9050919050565b7f4552433732313a207472616e7366657220746f206e6f6e20455243373231526560008201527f63656976657220696d706c656d656e7465720000000000000000000000000000602082015250565b6000613591603283612218565b915061359c82613535565b604082019050919050565b600060208201905081810360008301526135c081613584565b9050919050565b7f4e487b7100000000000000000000000000000000000000000000000000000000600052601260045260246000fd5b6000613601826122bf565b915061360c836122bf565b92508261361c5761361b6135c7565b5b828204905092915050565b6000613632826122bf565b915061363d836122bf565b92508261364d5761364c6135c7565b5b828206905092915050565b7f4e487b7100000000000000000000000000000000000000000000000000000000600052603260045260246000fd5b600081519050919050565b600082825260208201905092915050565b60006136ae82613687565b6136b88185613692565b93506136c8818560208601612229565b6136d181612253565b840191505092915050565b60006080820190506136f16000830187612354565b6136fe6020830186612354565b61370b604083018561243d565b818103606083015261371d81846136a3565b905095945050505050565b6000815190506137378161217e565b92915050565b60006020828403121561375357613752612148565b5b600061376184828501613728565b9150509291505056fea26469706673582212207deeb5e89e7b1b0ddb39312ed4d5a73cbb91b168b2c1ad280598813a992fffb064736f6c63430008120033",
  "immutableReferences": {},
  "source": "// SPDX-License-Identifier: MIT\r\npragma solidity >=0.4.22 <0.9.0;\r\n\r\nimport \"../node_modules/@openzeppelin/contracts/token/ERC721/ERC721.sol\";\r\n\r\ncontract CowCoin is ERC721 {\r\n    \r\n    // Permission address at create Certificate and send new cert to Customers.\r\n    uint public goverCount = 0;\r\n    uint public cowCertCount = 0;\r\n    \r\n    address [] government;\r\n    \r\n    struct AdAdmin{\r\n        uint256 userId;\r\n        address government;\r\n        string username;\r\n    }\r\n    \r\n    struct AddCertCoin {\r\n        uint256 id;\r\n        string tokendId;\r\n        string cowCertlist;\r\n        string imgPath;\r\n    }\r\n    \r\n    mapping(uint256 => AdAdmin) public taskcows;\r\n    mapping(uint256 => AddCertCoin) public blacklistedCowCert;\r\n    mapping(uint256 => bool) public blockCowcert;\r\n    // mapping(uint256 => bool) internal blockCowcert;\r\n\r\n   \r\n    \r\n    constructor()   \r\n    ERC721(\"SmartCowcert\",\"SMARTCOWCERT\")\r\n    {\r\n        taskcows[goverCount] = AdAdmin(goverCount,msg.sender,\"Suradath\");\r\n    }\r\n\r\n    modifier onlyGovernment() {\r\n          for(uint i = 0; i <= goverCount; i++)\r\n        {\r\n            if(taskcows[i].government == msg.sender)\r\n            {\r\n                require(msg.sender == taskcows[i].government ,\"You are not Owner!\");\r\n                _;\r\n            }\r\n        }\r\n        // require(msg.sender == taskcows[goverCount].government ,\"You are not Owner!\");\r\n        // _;\r\n    }\r\n\r\n    event TaskCreatedadmin(\r\n        uint256 userId,\r\n        address government,\r\n        string username\r\n    );\r\n    event TaskCreateCowCert(\r\n        uint256 id,\r\n        string tokendid,\r\n        string cowCertlist,\r\n        string imgPath\r\n    );\r\n    \r\n    // Add admin address by governments add to admin\r\n    function addAdmin(address _government,string memory _username) public {\r\n        // require(msg.sender == taskcows[goverCount].government,\"You not create Admin\");\r\n        for(uint256 i = 0; i <= goverCount; i++)\r\n        {\r\n            if(taskcows[i].government == msg.sender)\r\n            {\r\n                require(msg.sender == taskcows[i].government,\"You not create Admin\");\r\n                goverCount++;\r\n                taskcows[goverCount] = AdAdmin(goverCount,_government,_username);\r\n                emit TaskCreatedadmin(goverCount,_government,_username);\r\n            }        \r\n        }\r\n        \r\n    }\r\n    \r\n    function tokenizedCowCert(address _realEstateOwner, string memory _tokenId,string memory _cowCertlist,string memory _imgPath)\r\n        public\r\n        onlyGovernment\r\n    {\r\n        cowCertCount++;\r\n        blacklistedCowCert[cowCertCount] = AddCertCoin(cowCertCount,_tokenId,_cowCertlist,_imgPath);\r\n        // super._mint(_realEstateOwner, _tokenId);\r\n        super._mint(_realEstateOwner,cowCertCount);\r\n        emit TaskCreateCowCert(cowCertCount,_tokenId,_cowCertlist,_imgPath);\r\n    }\r\n\r\n    // function getTokenizedCowCer(uint256 _id) public view returns(uint256,uint256,string memory,string memory){\r\n    //     return blacklistedCowCert(_id);\r\n    // }\r\n\r\n    // Stop or block Cowcoin Nft from buying or selling.\r\n    function disableTransfer(uint256 _tokenId) public onlyGovernment {\r\n        blockCowcert[_tokenId] = true;\r\n    }\r\n    \r\n    function enableTransfer(uint256 _tokenId) public onlyGovernment {\r\n        blockCowcert[_tokenId] = false;\r\n    }\r\n\r\n    // Setup sell  Customer Payment to sell  Customer type P2P \r\n    function safeTransferFrom(\r\n        address _from,\r\n        address _to,\r\n        uint256 _tokenId\r\n    ) public virtual override {\r\n        require(blockCowcert[_tokenId] == false);\r\n        super.safeTransferFrom(_from, _to, _tokenId);\r\n    }\r\n\r\n}",
  "sourcePath": "D:\\Lab-project\\finalnftCowcert\\contracts\\CowCoin.sol",
  "compiler": {
    "name": "solc",
    "version": "0.8.18+commit.87f61d96.Emscripten.clang"
  },
  "schemaVersion": "3.4.11",
  "updatedAt": "2023-02-21T05:48:01.960Z",
  "networkType": "ethereum",
  "devdoc": {
    "events": {
      "Approval(address,address,uint256)": {
        "details": "Emitted when `owner` enables `approved` to manage the `tokenId` token."
      },
      "ApprovalForAll(address,address,bool)": {
        "details": "Emitted when `owner` enables or disables (`approved`) `operator` to manage all of its assets."
      },
      "Transfer(address,address,uint256)": {
        "details": "Emitted when `tokenId` token is transferred from `from` to `to`."
      }
    },
    "kind": "dev",
    "methods": {
      "approve(address,uint256)": {
        "details": "See {IERC721-approve}."
      },
      "balanceOf(address)": {
        "details": "See {IERC721-balanceOf}."
      },
      "getApproved(uint256)": {
        "details": "See {IERC721-getApproved}."
      },
      "isApprovedForAll(address,address)": {
        "details": "See {IERC721-isApprovedForAll}."
      },
      "name()": {
        "details": "See {IERC721Metadata-name}."
      },
      "ownerOf(uint256)": {
        "details": "See {IERC721-ownerOf}."
      },
      "safeTransferFrom(address,address,uint256,bytes)": {
        "details": "See {IERC721-safeTransferFrom}."
      },
      "setApprovalForAll(address,bool)": {
        "details": "See {IERC721-setApprovalForAll}."
      },
      "supportsInterface(bytes4)": {
        "details": "See {IERC165-supportsInterface}."
      },
      "symbol()": {
        "details": "See {IERC721Metadata-symbol}."
      },
      "tokenURI(uint256)": {
        "details": "See {IERC721Metadata-tokenURI}."
      },
      "transferFrom(address,address,uint256)": {
        "details": "See {IERC721-transferFrom}."
      }
    },
    "version": 1
  },
  "userdoc": {
    "kind": "user",
    "methods": {},
    "version": 1
  }
}