{
  "contractName": "CowCoin",
  "abi": [
    {
      "inputs": [],
      "stateMutability": "nonpayable",
      "type": "constructor"
    },
    {
      "anonymous": false,
      "inputs": [
        {
          "indexed": true,
          "internalType": "address",
          "name": "owner",
          "type": "address"
        },
        {
          "indexed": true,
          "internalType": "address",
          "name": "approved",
          "type": "address"
        },
        {
          "indexed": true,
          "internalType": "uint256",
          "name": "tokenId",
          "type": "uint256"
        }
      ],
      "name": "Approval",
      "type": "event"
    },
    {
      "anonymous": false,
      "inputs": [
        {
          "indexed": true,
          "internalType": "address",
          "name": "owner",
          "type": "address"
        },
        {
          "indexed": true,
          "internalType": "address",
          "name": "operator",
          "type": "address"
        },
        {
          "indexed": false,
          "internalType": "bool",
          "name": "approved",
          "type": "bool"
        }
      ],
      "name": "ApprovalForAll",
      "type": "event"
    },
    {
      "anonymous": false,
      "inputs": [
        {
          "indexed": false,
          "internalType": "uint256",
          "name": "id",
          "type": "uint256"
        },
        {
          "indexed": false,
          "internalType": "string",
          "name": "tokendid",
          "type": "string"
        },
        {
          "indexed": false,
          "internalType": "string",
          "name": "cowCertlist",
          "type": "string"
        },
        {
          "indexed": false,
          "internalType": "string",
          "name": "imgPath",
          "type": "string"
        }
      ],
      "name": "TaskCreateCowCert",
      "type": "event"
    },
    {
      "anonymous": false,
      "inputs": [
        {
          "indexed": false,
          "internalType": "uint256",
          "name": "userId",
          "type": "uint256"
        },
        {
          "indexed": false,
          "internalType": "address",
          "name": "government",
          "type": "address"
        },
        {
          "indexed": false,
          "internalType": "string",
          "name": "username",
          "type": "string"
        }
      ],
      "name": "TaskCreatedadmin",
      "type": "event"
    },
    {
      "anonymous": false,
      "inputs": [
        {
          "indexed": true,
          "internalType": "address",
          "name": "from",
          "type": "address"
        },
        {
          "indexed": true,
          "internalType": "address",
          "name": "to",
          "type": "address"
        },
        {
          "indexed": true,
          "internalType": "uint256",
          "name": "tokenId",
          "type": "uint256"
        }
      ],
      "name": "Transfer",
      "type": "event"
    },
    {
      "inputs": [
        {
          "internalType": "address",
          "name": "to",
          "type": "address"
        },
        {
          "internalType": "uint256",
          "name": "tokenId",
          "type": "uint256"
        }
      ],
      "name": "approve",
      "outputs": [],
      "stateMutability": "nonpayable",
      "type": "function"
    },
    {
      "inputs": [
        {
          "internalType": "address",
          "name": "owner",
          "type": "address"
        }
      ],
      "name": "balanceOf",
      "outputs": [
        {
          "internalType": "uint256",
          "name": "",
          "type": "uint256"
        }
      ],
      "stateMutability": "view",
      "type": "function",
      "constant": true
    },
    {
      "inputs": [
        {
          "internalType": "uint256",
          "name": "",
          "type": "uint256"
        }
      ],
      "name": "blacklistedCowCert",
      "outputs": [
        {
          "internalType": "uint256",
          "name": "id",
          "type": "uint256"
        },
        {
          "internalType": "string",
          "name": "tokendId",
          "type": "string"
        },
        {
          "internalType": "string",
          "name": "cowCertlist",
          "type": "string"
        },
        {
          "internalType": "string",
          "name": "imgPath",
          "type": "string"
        }
      ],
      "stateMutability": "view",
      "type": "function",
      "constant": true
    },
    {
      "inputs": [
        {
          "internalType": "uint256",
          "name": "",
          "type": "uint256"
        }
      ],
      "name": "blockCowcert",
      "outputs": [
        {
          "internalType": "bool",
          "name": "",
          "type": "bool"
        }
      ],
      "stateMutability": "view",
      "type": "function",
      "constant": true
    },
    {
      "inputs": [],
      "name": "cowCertCount",
      "outputs": [
        {
          "internalType": "uint256",
          "name": "",
          "type": "uint256"
        }
      ],
      "stateMutability": "view",
      "type": "function",
      "constant": true
    },
    {
      "inputs": [
        {
          "internalType": "uint256",
          "name": "tokenId",
          "type": "uint256"
        }
      ],
      "name": "getApproved",
      "outputs": [
        {
          "internalType": "address",
          "name": "",
          "type": "address"
        }
      ],
      "stateMutability": "view",
      "type": "function",
      "constant": true
    },
    {
      "inputs": [],
      "name": "goverCount",
      "outputs": [
        {
          "internalType": "uint256",
          "name": "",
          "type": "uint256"
        }
      ],
      "stateMutability": "view",
      "type": "function",
      "constant": true
    },
    {
      "inputs": [
        {
          "internalType": "address",
          "name": "owner",
          "type": "address"
        },
        {
          "internalType": "address",
          "name": "operator",
          "type": "address"
        }
      ],
      "name": "isApprovedForAll",
      "outputs": [
        {
          "internalType": "bool",
          "name": "",
          "type": "bool"
        }
      ],
      "stateMutability": "view",
      "type": "function",
      "constant": true
    },
    {
      "inputs": [],
      "name": "name",
      "outputs": [
        {
          "internalType": "string",
          "name": "",
          "type": "string"
        }
      ],
      "stateMutability": "view",
      "type": "function",
      "constant": true
    },
    {
      "inputs": [
        {
          "internalType": "uint256",
          "name": "tokenId",
          "type": "uint256"
        }
      ],
      "name": "ownerOf",
      "outputs": [
        {
          "internalType": "address",
          "name": "",
          "type": "address"
        }
      ],
      "stateMutability": "view",
      "type": "function",
      "constant": true
    },
    {
      "inputs": [
        {
          "internalType": "address",
          "name": "operator",
          "type": "address"
        },
        {
          "internalType": "bool",
          "name": "approved",
          "type": "bool"
        }
      ],
      "name": "setApprovalForAll",
      "outputs": [],
      "stateMutability": "nonpayable",
      "type": "function"
    },
    {
      "inputs": [
        {
          "internalType": "bytes4",
          "name": "interfaceId",
          "type": "bytes4"
        }
      ],
      "name": "supportsInterface",
      "outputs": [
        {
          "internalType": "bool",
          "name": "",
          "type": "bool"
        }
      ],
      "stateMutability": "view",
      "type": "function",
      "constant": true
    },
    {
      "inputs": [],
      "name": "symbol",
      "outputs": [
        {
          "internalType": "string",
          "name": "",
          "type": "string"
        }
      ],
      "stateMutability": "view",
      "type": "function",
      "constant": true
    },
    {
      "inputs": [
        {
          "internalType": "uint256",
          "name": "",
          "type": "uint256"
        }
      ],
      "name": "taskcows",
      "outputs": [
        {
          "internalType": "uint256",
          "name": "userId",
          "type": "uint256"
        },
        {
          "internalType": "address",
          "name": "government",
          "type": "address"
        },
        {
          "internalType": "string",
          "name": "username",
          "type": "string"
        }
      ],
      "stateMutability": "view",
      "type": "function",
      "constant": true
    },
    {
      "inputs": [
        {
          "internalType": "uint256",
          "name": "tokenId",
          "type": "uint256"
        }
      ],
      "name": "tokenURI",
      "outputs": [
        {
          "internalType": "string",
          "name": "",
          "type": "string"
        }
      ],
      "stateMutability": "view",
      "type": "function",
      "constant": true
    },
    {
      "inputs": [
        {
          "internalType": "address",
          "name": "from",
          "type": "address"
        },
        {
          "internalType": "address",
          "name": "to",
          "type": "address"
        },
        {
          "internalType": "uint256",
          "name": "tokenId",
          "type": "uint256"
        }
      ],
      "name": "transferFrom",
      "outputs": [],
      "stateMutability": "nonpayable",
      "type": "function"
    },
    {
      "inputs": [
        {
          "internalType": "address",
          "name": "_government",
          "type": "address"
        },
        {
          "internalType": "string",
          "name": "_username",
          "type": "string"
        }
      ],
      "name": "addAdmin",
      "outputs": [],
      "stateMutability": "nonpayable",
      "type": "function"
    },
    {
      "inputs": [
        {
          "internalType": "address",
          "name": "_realEstateOwner",
          "type": "address"
        },
        {
          "internalType": "string",
          "name": "_tokenId",
          "type": "string"
        },
        {
          "internalType": "string",
          "name": "_cowCertlist",
          "type": "string"
        },
        {
          "internalType": "string",
          "name": "_imgPath",
          "type": "string"
        }
      ],
      "name": "tokenizedCowCert",
      "outputs": [],
      "stateMutability": "nonpayable",
      "type": "function"
    },
    {
      "inputs": [
        {
          "internalType": "uint256",
          "name": "_tokenId",
          "type": "uint256"
        }
      ],
      "name": "disableTransfer",
      "outputs": [],
      "stateMutability": "nonpayable",
      "type": "function"
    },
    {
      "inputs": [
        {
          "internalType": "uint256",
          "name": "_tokenId",
          "type": "uint256"
        }
      ],
      "name": "enableTransfer",
      "outputs": [],
      "stateMutability": "nonpayable",
      "type": "function"
    },
    {
      "inputs": [
        {
          "internalType": "address",
          "name": "_from",
          "type": "address"
        },
        {
          "internalType": "address",
          "name": "_to",
          "type": "address"
        },
        {
          "internalType": "uint256",
          "name": "_tokenId",
          "type": "uint256"
        }
      ],
      "name": "safeTransferFrom",
      "outputs": [],
      "stateMutability": "nonpayable",
      "type": "function"
    },
    {
      "inputs": [
        {
          "internalType": "address",
          "name": "from",
          "type": "address"
        },
        {
          "internalType": "address",
          "name": "to",
          "type": "address"
        },
        {
          "internalType": "uint256",
          "name": "tokenId",
          "type": "uint256"
        },
        {
          "internalType": "bytes",
          "name": "_data",
          "type": "bytes"
        }
      ],
      "name": "safeTransferFrom",
      "outputs": [],
      "stateMutability": "nonpayable",
      "type": "function"
    }
  ],
  "bytecode": "0x6080604052600060065560006007553480156200001b57600080fd5b506040518060400160405280600c81526020017f536d617274436f776365727400000000000000000000000000000000000000008152506040518060400160405280600c81526020017f534d415254434f57434552540000000000000000000000000000000000000000815250816000908162000099919062000417565b508060019081620000ab919062000417565b505050604051806060016040528060065481526020013373ffffffffffffffffffffffffffffffffffffffff1681526020016040518060400160405280600881526020017f53757261646174680000000000000000000000000000000000000000000000008152508152506009600060065481526020019081526020016000206000820151816000015560208201518160010160006101000a81548173ffffffffffffffffffffffffffffffffffffffff021916908373ffffffffffffffffffffffffffffffffffffffff160217905550604082015181600201908162000193919062000417565b50905050620004fe565b600081519050919050565b7f4e487b7100000000000000000000000000000000000000000000000000000000600052604160045260246000fd5b7f4e487b7100000000000000000000000000000000000000000000000000000000600052602260045260246000fd5b600060028204905060018216806200021f57607f821691505b602082108103620002355762000234620001d7565b5b50919050565b60008190508160005260206000209050919050565b60006020601f8301049050919050565b600082821b905092915050565b6000600883026200029f7fffffffffffffffffffffffffffffffffffffffffffffffffffffffffffffffff8262000260565b620002ab868362000260565b95508019841693508086168417925050509392505050565b6000819050919050565b6000819050919050565b6000620002f8620002f2620002ec84620002c3565b620002cd565b620002c3565b9050919050565b6000819050919050565b6200031483620002d7565b6200032c6200032382620002ff565b8484546200026d565b825550505050565b600090565b6200034362000334565b6200035081848462000309565b505050565b5b8181101562000378576200036c60008262000339565b60018101905062000356565b5050565b601f821115620003c75762000391816200023b565b6200039c8462000250565b81016020851015620003ac578190505b620003c4620003bb8562000250565b83018262000355565b50505b505050565b600082821c905092915050565b6000620003ec60001984600802620003cc565b1980831691505092915050565b6000620004078383620003d9565b9150826002028217905092915050565b62000422826200019d565b67ffffffffffffffff8111156200043e576200043d620001a8565b5b6200044a825462000206565b620004578282856200037c565b600060209050601f8311600181146200048f57600084156200047a578287015190505b620004868582620003f9565b865550620004f6565b601f1984166200049f866200023b565b60005b82811015620004c957848901518255600182019150602085019450602081019050620004a2565b86831015620004e95784890151620004e5601f891682620003d9565b8355505b6001600288020188555050505b505050505050565b6137cb806200050e6000396000f3fe608060405234801561001057600080fd5b50600436106101425760003560e01c806395d89b41116100b8578063d16856ca1161007c578063d16856ca14610387578063d5dbc3d5146103a3578063e0be0f57146103d6578063e59989f5146103f4578063e985e9c514610410578063f11a06841461044057610142565b806395d89b41146102e5578063a22cb46514610303578063b88d4fde1461031f578063c3c88a1d1461033b578063c87b56dd1461035757610142565b80632cb3939a1161010a5780632cb3939a146101fd5780632d6acafb1461021b57806342842e0e1461024d5780636352211e146102695780636f7153781461029957806370a08231146102b557610142565b806301ffc9a71461014757806306fdde0314610177578063081812fc14610195578063095ea7b3146101c557806323b872dd146101e1575b600080fd5b610161600480360381019061015c91906121aa565b610470565b60405161016e91906121f2565b60405180910390f35b61017f610552565b60405161018c91906122a6565b60405180910390f35b6101af60048036038101906101aa91906122fe565b6105e4565b6040516101bc919061236c565b60405180910390f35b6101df60048036038101906101da91906123b3565b610669565b005b6101fb60048036038101906101f691906123f3565b610780565b005b6102056107e0565b6040516102129190612455565b60405180910390f35b610235600480360381019061023091906122fe565b6107e6565b60405161024493929190612470565b60405180910390f35b610267600480360381019061026291906123f3565b6108b8565b005b610283600480360381019061027e91906122fe565b6108f9565b604051610290919061236c565b60405180910390f35b6102b360048036038101906102ae91906125e3565b6109aa565b005b6102cf60048036038101906102ca919061269e565b610bc8565b6040516102dc9190612455565b60405180910390f35b6102ed610c7f565b6040516102fa91906122a6565b60405180910390f35b61031d600480360381019061031891906126f7565b610d11565b005b610339600480360381019061033491906127d8565b610e91565b005b610355600480360381019061035091906122fe565b610ef3565b005b610371600480360381019061036c91906122fe565b611050565b60405161037e91906122a6565b60405180910390f35b6103a1600480360381019061039c919061285b565b6110f7565b005b6103bd60048036038101906103b891906122fe565b611330565b6040516103cd94939291906128b7565b60405180910390f35b6103de6114f8565b6040516103eb9190612455565b60405180910390f35b61040e600480360381019061040991906122fe565b6114fe565b005b61042a60048036038101906104259190612911565b61165b565b60405161043791906121f2565b60405180910390f35b61045a600480360381019061045591906122fe565b6116ef565b60405161046791906121f2565b60405180910390f35b60007f80ac58cd000000000000000000000000000000000000000000000000000000007bffffffffffffffffffffffffffffffffffffffffffffffffffffffff1916827bffffffffffffffffffffffffffffffffffffffffffffffffffffffff1916148061053b57507f5b5e139f000000000000000000000000000000000000000000000000000000007bffffffffffffffffffffffffffffffffffffffffffffffffffffffff1916827bffffffffffffffffffffffffffffffffffffffffffffffffffffffff1916145b8061054b575061054a8261170f565b5b9050919050565b60606000805461056190612980565b80601f016020809104026020016040519081016040528092919081815260200182805461058d90612980565b80156105da5780601f106105af576101008083540402835291602001916105da565b820191906000526020600020905b8154815290600101906020018083116105bd57829003601f168201915b5050505050905090565b60006105ef82611779565b61062e576040517f08c379a000000000000000000000000000000000000000000000000000000000815260040161062590612a23565b60405180910390fd5b6004600083815260200190815260200160002060009054906101000a900473ffffffffffffffffffffffffffffffffffffffff169050919050565b6000610674826108f9565b90508073ffffffffffffffffffffffffffffffffffffffff168373ffffffffffffffffffffffffffffffffffffffff16036106e4576040517f08c379a00000000000000000000000000000000000000000000000000000000081526004016106db90612ab5565b60405180910390fd5b8073ffffffffffffffffffffffffffffffffffffffff166107036117e5565b73ffffffffffffffffffffffffffffffffffffffff16148061073257506107318161072c6117e5565b61165b565b5b610771576040517f08c379a000000000000000000000000000000000000000000000000000000000815260040161076890612b47565b60405180910390fd5b61077b83836117ed565b505050565b61079161078b6117e5565b826118a6565b6107d0576040517f08c379a00000000000000000000000000000000000000000000000000000000081526004016107c790612bd9565b60405180910390fd5b6107db838383611984565b505050565b60075481565b60096020528060005260406000206000915090508060000154908060010160009054906101000a900473ffffffffffffffffffffffffffffffffffffffff169080600201805461083590612980565b80601f016020809104026020016040519081016040528092919081815260200182805461086190612980565b80156108ae5780601f10610883576101008083540402835291602001916108ae565b820191906000526020600020905b81548152906001019060200180831161089157829003601f168201915b5050505050905083565b60001515600b600083815260200190815260200160002060009054906101000a900460ff161515146108e957600080fd5b6108f4838383611bdf565b505050565b6000806002600084815260200190815260200160002060009054906101000a900473ffffffffffffffffffffffffffffffffffffffff169050600073ffffffffffffffffffffffffffffffffffffffff168173ffffffffffffffffffffffffffffffffffffffff16036109a1576040517f08c379a000000000000000000000000000000000000000000000000000000000815260040161099890612c6b565b60405180910390fd5b80915050919050565b60005b6006548111610bc1573373ffffffffffffffffffffffffffffffffffffffff166009600083815260200190815260200160002060010160009054906101000a900473ffffffffffffffffffffffffffffffffffffffff1673ffffffffffffffffffffffffffffffffffffffff1603610bae576009600082815260200190815260200160002060010160009054906101000a900473ffffffffffffffffffffffffffffffffffffffff1673ffffffffffffffffffffffffffffffffffffffff163373ffffffffffffffffffffffffffffffffffffffff1614610ac3576040517f08c379a0000000000000000000000000000000000000000000000000000000008152600401610aba90612cd7565b60405180910390fd5b60076000815480929190610ad690612d26565b91905055506040518060800160405280600754815260200185815260200184815260200183815250600a60006007548152602001908152602001600020600082015181600001556020820151816001019081610b329190612f1a565b506040820151816002019081610b489190612f1a565b506060820151816003019081610b5e9190612f1a565b50905050610b6e85600754611bff565b7fdd9dd323e29f8cd59a49751518bc080d5f1dfea3b949fbea9b257215a4e4fc6c600754858585604051610ba594939291906128b7565b60405180910390a15b8080610bb990612d26565b9150506109ad565b5050505050565b60008073ffffffffffffffffffffffffffffffffffffffff168273ffffffffffffffffffffffffffffffffffffffff1603610c38576040517f08c379a0000000000000000000000000000000000000000000000000000000008152600401610c2f9061305e565b60405180910390fd5b600360008373ffffffffffffffffffffffffffffffffffffffff1673ffffffffffffffffffffffffffffffffffffffff168152602001908152602001600020549050919050565b606060018054610c8e90612980565b80601f0160208091040260200160405190810160405280929190818152602001828054610cba90612980565b8015610d075780601f10610cdc57610100808354040283529160200191610d07565b820191906000526020600020905b815481529060010190602001808311610cea57829003601f168201915b5050505050905090565b610d196117e5565b73ffffffffffffffffffffffffffffffffffffffff168273ffffffffffffffffffffffffffffffffffffffff1603610d86576040517f08c379a0000000000000000000000000000000000000000000000000000000008152600401610d7d906130ca565b60405180910390fd5b8060056000610d936117e5565b73ffffffffffffffffffffffffffffffffffffffff1673ffffffffffffffffffffffffffffffffffffffff16815260200190815260200160002060008473ffffffffffffffffffffffffffffffffffffffff1673ffffffffffffffffffffffffffffffffffffffff16815260200190815260200160002060006101000a81548160ff0219169083151502179055508173ffffffffffffffffffffffffffffffffffffffff16610e406117e5565b73ffffffffffffffffffffffffffffffffffffffff167f17307eab39ab6107e8899845ad3d59bd9653f200f220920489ca2b5937696c3183604051610e8591906121f2565b60405180910390a35050565b610ea2610e9c6117e5565b836118a6565b610ee1576040517f08c379a0000000000000000000000000000000000000000000000000000000008152600401610ed890612bd9565b60405180910390fd5b610eed84848484611dcc565b50505050565b60005b600654811161104c573373ffffffffffffffffffffffffffffffffffffffff166009600083815260200190815260200160002060010160009054906101000a900473ffffffffffffffffffffffffffffffffffffffff1673ffffffffffffffffffffffffffffffffffffffff1603611039576009600082815260200190815260200160002060010160009054906101000a900473ffffffffffffffffffffffffffffffffffffffff1673ffffffffffffffffffffffffffffffffffffffff163373ffffffffffffffffffffffffffffffffffffffff161461100c576040517f08c379a000000000000000000000000000000000000000000000000000000000815260040161100390612cd7565b60405180910390fd5b6001600b600084815260200190815260200160002060006101000a81548160ff0219169083151502179055505b808061104490612d26565b915050610ef6565b5050565b606061105b82611779565b61109a576040517f08c379a00000000000000000000000000000000000000000000000000000000081526004016110919061315c565b60405180910390fd5b60006110a4611e28565b905060008151116110c457604051806020016040528060008152506110ef565b806110ce84611e3f565b6040516020016110df9291906131b8565b6040516020818303038152906040525b915050919050565b60005b600654811161132b573373ffffffffffffffffffffffffffffffffffffffff166009600083815260200190815260200160002060010160009054906101000a900473ffffffffffffffffffffffffffffffffffffffff1673ffffffffffffffffffffffffffffffffffffffff1603611318576009600082815260200190815260200160002060010160009054906101000a900473ffffffffffffffffffffffffffffffffffffffff1673ffffffffffffffffffffffffffffffffffffffff163373ffffffffffffffffffffffffffffffffffffffff1614611210576040517f08c379a000000000000000000000000000000000000000000000000000000000815260040161120790613228565b60405180910390fd5b6006600081548092919061122390612d26565b9190505550604051806060016040528060065481526020018473ffffffffffffffffffffffffffffffffffffffff168152602001838152506009600060065481526020019081526020016000206000820151816000015560208201518160010160006101000a81548173ffffffffffffffffffffffffffffffffffffffff021916908373ffffffffffffffffffffffffffffffffffffffff16021790555060408201518160020190816112d69190612f1a565b509050507fef378b7ae33a273f09c904a9a8601d264935a173fd8aa7a9b00b89839df7fa6e600654848460405161130f93929190612470565b60405180910390a15b808061132390612d26565b9150506110fa565b505050565b600a60205280600052604060002060009150905080600001549080600101805461135990612980565b80601f016020809104026020016040519081016040528092919081815260200182805461138590612980565b80156113d25780601f106113a7576101008083540402835291602001916113d2565b820191906000526020600020905b8154815290600101906020018083116113b557829003601f168201915b5050505050908060020180546113e790612980565b80601f016020809104026020016040519081016040528092919081815260200182805461141390612980565b80156114605780601f1061143557610100808354040283529160200191611460565b820191906000526020600020905b81548152906001019060200180831161144357829003601f168201915b50505050509080600301805461147590612980565b80601f01602080910402602001604051908101604052809291908181526020018280546114a190612980565b80156114ee5780601f106114c3576101008083540402835291602001916114ee565b820191906000526020600020905b8154815290600101906020018083116114d157829003601f168201915b5050505050905084565b60065481565b60005b6006548111611657573373ffffffffffffffffffffffffffffffffffffffff166009600083815260200190815260200160002060010160009054906101000a900473ffffffffffffffffffffffffffffffffffffffff1673ffffffffffffffffffffffffffffffffffffffff1603611644576009600082815260200190815260200160002060010160009054906101000a900473ffffffffffffffffffffffffffffffffffffffff1673ffffffffffffffffffffffffffffffffffffffff163373ffffffffffffffffffffffffffffffffffffffff1614611617576040517f08c379a000000000000000000000000000000000000000000000000000000000815260040161160e90612cd7565b60405180910390fd5b6000600b600084815260200190815260200160002060006101000a81548160ff0219169083151502179055505b808061164f90612d26565b915050611501565b5050565b6000600560008473ffffffffffffffffffffffffffffffffffffffff1673ffffffffffffffffffffffffffffffffffffffff16815260200190815260200160002060008373ffffffffffffffffffffffffffffffffffffffff1673ffffffffffffffffffffffffffffffffffffffff16815260200190815260200160002060009054906101000a900460ff16905092915050565b600b6020528060005260406000206000915054906101000a900460ff1681565b60007f01ffc9a7000000000000000000000000000000000000000000000000000000007bffffffffffffffffffffffffffffffffffffffffffffffffffffffff1916827bffffffffffffffffffffffffffffffffffffffffffffffffffffffff1916149050919050565b60008073ffffffffffffffffffffffffffffffffffffffff166002600084815260200190815260200160002060009054906101000a900473ffffffffffffffffffffffffffffffffffffffff1673ffffffffffffffffffffffffffffffffffffffff1614159050919050565b600033905090565b816004600083815260200190815260200160002060006101000a81548173ffffffffffffffffffffffffffffffffffffffff021916908373ffffffffffffffffffffffffffffffffffffffff160217905550808273ffffffffffffffffffffffffffffffffffffffff16611860836108f9565b73ffffffffffffffffffffffffffffffffffffffff167f8c5be1e5ebec7d5bd14f71427d1e84f3dd0314c0f7b2291e5b200ac8c7c3b92560405160405180910390a45050565b60006118b182611779565b6118f0576040517f08c379a00000000000000000000000000000000000000000000000000000000081526004016118e7906132ba565b60405180910390fd5b60006118fb836108f9565b90508073ffffffffffffffffffffffffffffffffffffffff168473ffffffffffffffffffffffffffffffffffffffff16148061196a57508373ffffffffffffffffffffffffffffffffffffffff16611952846105e4565b73ffffffffffffffffffffffffffffffffffffffff16145b8061197b575061197a818561165b565b5b91505092915050565b8273ffffffffffffffffffffffffffffffffffffffff166119a4826108f9565b73ffffffffffffffffffffffffffffffffffffffff16146119fa576040517f08c379a00000000000000000000000000000000000000000000000000000000081526004016119f19061334c565b60405180910390fd5b600073ffffffffffffffffffffffffffffffffffffffff168273ffffffffffffffffffffffffffffffffffffffff1603611a69576040517f08c379a0000000000000000000000000000000000000000000000000000000008152600401611a60906133de565b60405180910390fd5b611a74838383611f9f565b611a7f6000826117ed565b6001600360008573ffffffffffffffffffffffffffffffffffffffff1673ffffffffffffffffffffffffffffffffffffffff1681526020019081526020016000206000828254611acf91906133fe565b925050819055506001600360008473ffffffffffffffffffffffffffffffffffffffff1673ffffffffffffffffffffffffffffffffffffffff1681526020019081526020016000206000828254611b269190613432565b92505081905550816002600083815260200190815260200160002060006101000a81548173ffffffffffffffffffffffffffffffffffffffff021916908373ffffffffffffffffffffffffffffffffffffffff160217905550808273ffffffffffffffffffffffffffffffffffffffff168473ffffffffffffffffffffffffffffffffffffffff167fddf252ad1be2c89b69c2b068fc378daa952ba7f163c4a11628f55a4df523b3ef60405160405180910390a4505050565b611bfa83838360405180602001604052806000815250610e91565b505050565b600073ffffffffffffffffffffffffffffffffffffffff168273ffffffffffffffffffffffffffffffffffffffff1603611c6e576040517f08c379a0000000000000000000000000000000000000000000000000000000008152600401611c65906134d4565b60405180910390fd5b611c7781611779565b15611cb7576040517f08c379a0000000000000000000000000000000000000000000000000000000008152600401611cae90613540565b60405180910390fd5b611cc360008383611f9f565b6001600360008473ffffffffffffffffffffffffffffffffffffffff1673ffffffffffffffffffffffffffffffffffffffff1681526020019081526020016000206000828254611d139190613432565b92505081905550816002600083815260200190815260200160002060006101000a81548173ffffffffffffffffffffffffffffffffffffffff021916908373ffffffffffffffffffffffffffffffffffffffff160217905550808273ffffffffffffffffffffffffffffffffffffffff16600073ffffffffffffffffffffffffffffffffffffffff167fddf252ad1be2c89b69c2b068fc378daa952ba7f163c4a11628f55a4df523b3ef60405160405180910390a45050565b611dd7848484611984565b611de384848484611fa4565b611e22576040517f08c379a0000000000000000000000000000000000000000000000000000000008152600401611e19906135d2565b60405180910390fd5b50505050565b606060405180602001604052806000815250905090565b606060008203611e86576040518060400160405280600181526020017f30000000000000000000000000000000000000000000000000000000000000008152509050611f9a565b600082905060005b60008214611eb8578080611ea190612d26565b915050600a82611eb19190613621565b9150611e8e565b60008167ffffffffffffffff811115611ed457611ed36124b8565b5b6040519080825280601f01601f191660200182016040528015611f065781602001600182028036833780820191505090505b5090505b60008514611f9357600182611f1f91906133fe565b9150600a85611f2e9190613652565b6030611f3a9190613432565b60f81b818381518110611f5057611f4f613683565b5b60200101907effffffffffffffffffffffffffffffffffffffffffffffffffffffffffffff1916908160001a905350600a85611f8c9190613621565b9450611f0a565b8093505050505b919050565b505050565b6000611fc58473ffffffffffffffffffffffffffffffffffffffff1661212b565b1561211e578373ffffffffffffffffffffffffffffffffffffffff1663150b7a02611fee6117e5565b8786866040518563ffffffff1660e01b81526004016120109493929190613707565b6020604051808303816000875af192505050801561204c57506040513d601f19601f820116820180604052508101906120499190613768565b60015b6120ce573d806000811461207c576040519150601f19603f3d011682016040523d82523d6000602084013e612081565b606091505b5060008151036120c6576040517f08c379a00000000000000000000000000000000000000000000000000000000081526004016120bd906135d2565b60405180910390fd5b805181602001fd5b63150b7a0260e01b7bffffffffffffffffffffffffffffffffffffffffffffffffffffffff1916817bffffffffffffffffffffffffffffffffffffffffffffffffffffffff191614915050612123565b600190505b949350505050565b600080823b905060008111915050919050565b6000604051905090565b600080fd5b600080fd5b60007fffffffff0000000000000000000000000000000000000000000000000000000082169050919050565b61218781612152565b811461219257600080fd5b50565b6000813590506121a48161217e565b92915050565b6000602082840312156121c0576121bf612148565b5b60006121ce84828501612195565b91505092915050565b60008115159050919050565b6121ec816121d7565b82525050565b600060208201905061220760008301846121e3565b92915050565b600081519050919050565b600082825260208201905092915050565b60005b8381101561224757808201518184015260208101905061222c565b83811115612256576000848401525b50505050565b6000601f19601f8301169050919050565b60006122788261220d565b6122828185612218565b9350612292818560208601612229565b61229b8161225c565b840191505092915050565b600060208201905081810360008301526122c0818461226d565b905092915050565b6000819050919050565b6122db816122c8565b81146122e657600080fd5b50565b6000813590506122f8816122d2565b92915050565b60006020828403121561231457612313612148565b5b6000612322848285016122e9565b91505092915050565b600073ffffffffffffffffffffffffffffffffffffffff82169050919050565b60006123568261232b565b9050919050565b6123668161234b565b82525050565b6000602082019050612381600083018461235d565b92915050565b6123908161234b565b811461239b57600080fd5b50565b6000813590506123ad81612387565b92915050565b600080604083850312156123ca576123c9612148565b5b60006123d88582860161239e565b92505060206123e9858286016122e9565b9150509250929050565b60008060006060848603121561240c5761240b612148565b5b600061241a8682870161239e565b935050602061242b8682870161239e565b925050604061243c868287016122e9565b9150509250925092565b61244f816122c8565b82525050565b600060208201905061246a6000830184612446565b92915050565b60006060820190506124856000830186612446565b612492602083018561235d565b81810360408301526124a4818461226d565b9050949350505050565b600080fd5b600080fd5b7f4e487b7100000000000000000000000000000000000000000000000000000000600052604160045260246000fd5b6124f08261225c565b810181811067ffffffffffffffff8211171561250f5761250e6124b8565b5b80604052505050565b600061252261213e565b905061252e82826124e7565b919050565b600067ffffffffffffffff82111561254e5761254d6124b8565b5b6125578261225c565b9050602081019050919050565b82818337600083830152505050565b600061258661258184612533565b612518565b9050828152602081018484840111156125a2576125a16124b3565b5b6125ad848285612564565b509392505050565b600082601f8301126125ca576125c96124ae565b5b81356125da848260208601612573565b91505092915050565b600080600080608085870312156125fd576125fc612148565b5b600061260b8782880161239e565b945050602085013567ffffffffffffffff81111561262c5761262b61214d565b5b612638878288016125b5565b935050604085013567ffffffffffffffff8111156126595761265861214d565b5b612665878288016125b5565b925050606085013567ffffffffffffffff8111156126865761268561214d565b5b612692878288016125b5565b91505092959194509250565b6000602082840312156126b4576126b3612148565b5b60006126c28482850161239e565b91505092915050565b6126d4816121d7565b81146126df57600080fd5b50565b6000813590506126f1816126cb565b92915050565b6000806040838503121561270e5761270d612148565b5b600061271c8582860161239e565b925050602061272d858286016126e2565b9150509250929050565b600067ffffffffffffffff821115612752576127516124b8565b5b61275b8261225c565b9050602081019050919050565b600061277b61277684612737565b612518565b905082815260208101848484011115612797576127966124b3565b5b6127a2848285612564565b509392505050565b600082601f8301126127bf576127be6124ae565b5b81356127cf848260208601612768565b91505092915050565b600080600080608085870312156127f2576127f1612148565b5b60006128008782880161239e565b94505060206128118782880161239e565b9350506040612822878288016122e9565b925050606085013567ffffffffffffffff8111156128435761284261214d565b5b61284f878288016127aa565b91505092959194509250565b6000806040838503121561287257612871612148565b5b60006128808582860161239e565b925050602083013567ffffffffffffffff8111156128a1576128a061214d565b5b6128ad858286016125b5565b9150509250929050565b60006080820190506128cc6000830187612446565b81810360208301526128de818661226d565b905081810360408301526128f2818561226d565b90508181036060830152612906818461226d565b905095945050505050565b6000806040838503121561292857612927612148565b5b60006129368582860161239e565b92505060206129478582860161239e565b9150509250929050565b7f4e487b7100000000000000000000000000000000000000000000000000000000600052602260045260246000fd5b6000600282049050600182168061299857607f821691505b6020821081036129ab576129aa612951565b5b50919050565b7f4552433732313a20617070726f76656420717565727920666f72206e6f6e657860008201527f697374656e7420746f6b656e0000000000000000000000000000000000000000602082015250565b6000612a0d602c83612218565b9150612a18826129b1565b604082019050919050565b60006020820190508181036000830152612a3c81612a00565b9050919050565b7f4552433732313a20617070726f76616c20746f2063757272656e74206f776e6560008201527f7200000000000000000000000000000000000000000000000000000000000000602082015250565b6000612a9f602183612218565b9150612aaa82612a43565b604082019050919050565b60006020820190508181036000830152612ace81612a92565b9050919050565b7f4552433732313a20617070726f76652063616c6c6572206973206e6f74206f7760008201527f6e6572206e6f7220617070726f76656420666f7220616c6c0000000000000000602082015250565b6000612b31603883612218565b9150612b3c82612ad5565b604082019050919050565b60006020820190508181036000830152612b6081612b24565b9050919050565b7f4552433732313a207472616e736665722063616c6c6572206973206e6f74206f60008201527f776e6572206e6f7220617070726f766564000000000000000000000000000000602082015250565b6000612bc3603183612218565b9150612bce82612b67565b604082019050919050565b60006020820190508181036000830152612bf281612bb6565b9050919050565b7f4552433732313a206f776e657220717565727920666f72206e6f6e657869737460008201527f656e7420746f6b656e0000000000000000000000000000000000000000000000602082015250565b6000612c55602983612218565b9150612c6082612bf9565b604082019050919050565b60006020820190508181036000830152612c8481612c48565b9050919050565b7f596f7520617265206e6f74204f776e6572210000000000000000000000000000600082015250565b6000612cc1601283612218565b9150612ccc82612c8b565b602082019050919050565b60006020820190508181036000830152612cf081612cb4565b9050919050565b7f4e487b7100000000000000000000000000000000000000000000000000000000600052601160045260246000fd5b6000612d31826122c8565b91507fffffffffffffffffffffffffffffffffffffffffffffffffffffffffffffffff8203612d6357612d62612cf7565b5b600182019050919050565b60008190508160005260206000209050919050565b60006020601f8301049050919050565b600082821b905092915050565b600060088302612dd07fffffffffffffffffffffffffffffffffffffffffffffffffffffffffffffffff82612d93565b612dda8683612d93565b95508019841693508086168417925050509392505050565b6000819050919050565b6000612e17612e12612e0d846122c8565b612df2565b6122c8565b9050919050565b6000819050919050565b612e3183612dfc565b612e45612e3d82612e1e565b848454612da0565b825550505050565b600090565b612e5a612e4d565b612e65818484612e28565b505050565b5b81811015612e8957612e7e600082612e52565b600181019050612e6b565b5050565b601f821115612ece57612e9f81612d6e565b612ea884612d83565b81016020851015612eb7578190505b612ecb612ec385612d83565b830182612e6a565b50505b505050565b600082821c905092915050565b6000612ef160001984600802612ed3565b1980831691505092915050565b6000612f0a8383612ee0565b9150826002028217905092915050565b612f238261220d565b67ffffffffffffffff811115612f3c57612f3b6124b8565b5b612f468254612980565b612f51828285612e8d565b600060209050601f831160018114612f845760008415612f72578287015190505b612f7c8582612efe565b865550612fe4565b601f198416612f9286612d6e565b60005b82811015612fba57848901518255600182019150602085019450602081019050612f95565b86831015612fd75784890151612fd3601f891682612ee0565b8355505b6001600288020188555050505b505050505050565b7f4552433732313a2062616c616e636520717565727920666f7220746865207a6560008201527f726f206164647265737300000000000000000000000000000000000000000000602082015250565b6000613048602a83612218565b915061305382612fec565b604082019050919050565b600060208201905081810360008301526130778161303b565b9050919050565b7f4552433732313a20617070726f766520746f2063616c6c657200000000000000600082015250565b60006130b4601983612218565b91506130bf8261307e565b602082019050919050565b600060208201905081810360008301526130e3816130a7565b9050919050565b7f4552433732314d657461646174613a2055524920717565727920666f72206e6f60008201527f6e6578697374656e7420746f6b656e0000000000000000000000000000000000602082015250565b6000613146602f83612218565b9150613151826130ea565b604082019050919050565b6000602082019050818103600083015261317581613139565b9050919050565b600081905092915050565b60006131928261220d565b61319c818561317c565b93506131ac818560208601612229565b80840191505092915050565b60006131c48285613187565b91506131d08284613187565b91508190509392505050565b7f596f75206e6f74206372656174652041646d696e000000000000000000000000600082015250565b6000613212601483612218565b915061321d826131dc565b602082019050919050565b6000602082019050818103600083015261324181613205565b9050919050565b7f4552433732313a206f70657261746f7220717565727920666f72206e6f6e657860008201527f697374656e7420746f6b656e0000000000000000000000000000000000000000602082015250565b60006132a4602c83612218565b91506132af82613248565b604082019050919050565b600060208201905081810360008301526132d381613297565b9050919050565b7f4552433732313a207472616e73666572206f6620746f6b656e2074686174206960008201527f73206e6f74206f776e0000000000000000000000000000000000000000000000602082015250565b6000613336602983612218565b9150613341826132da565b604082019050919050565b6000602082019050818103600083015261336581613329565b9050919050565b7f4552433732313a207472616e7366657220746f20746865207a65726f2061646460008201527f7265737300000000000000000000000000000000000000000000000000000000602082015250565b60006133c8602483612218565b91506133d38261336c565b604082019050919050565b600060208201905081810360008301526133f7816133bb565b9050919050565b6000613409826122c8565b9150613414836122c8565b92508282101561342757613426612cf7565b5b828203905092915050565b600061343d826122c8565b9150613448836122c8565b9250827fffffffffffffffffffffffffffffffffffffffffffffffffffffffffffffffff0382111561347d5761347c612cf7565b5b828201905092915050565b7f4552433732313a206d696e7420746f20746865207a65726f2061646472657373600082015250565b60006134be602083612218565b91506134c982613488565b602082019050919050565b600060208201905081810360008301526134ed816134b1565b9050919050565b7f4552433732313a20746f6b656e20616c7265616479206d696e74656400000000600082015250565b600061352a601c83612218565b9150613535826134f4565b602082019050919050565b600060208201905081810360008301526135598161351d565b9050919050565b7f4552433732313a207472616e7366657220746f206e6f6e20455243373231526560008201527f63656976657220696d706c656d656e7465720000000000000000000000000000602082015250565b60006135bc603283612218565b91506135c782613560565b604082019050919050565b600060208201905081810360008301526135eb816135af565b9050919050565b7f4e487b7100000000000000000000000000000000000000000000000000000000600052601260045260246000fd5b600061362c826122c8565b9150613637836122c8565b925082613647576136466135f2565b5b828204905092915050565b600061365d826122c8565b9150613668836122c8565b925082613678576136776135f2565b5b828206905092915050565b7f4e487b7100000000000000000000000000000000000000000000000000000000600052603260045260246000fd5b600081519050919050565b600082825260208201905092915050565b60006136d9826136b2565b6136e381856136bd565b93506136f3818560208601612229565b6136fc8161225c565b840191505092915050565b600060808201905061371c600083018761235d565b613729602083018661235d565b6137366040830185612446565b818103606083015261374881846136ce565b905095945050505050565b6000815190506137628161217e565b92915050565b60006020828403121561377e5761377d612148565b5b600061378c84828501613753565b9150509291505056fea2646970667358221220e7ccf214f7b2cbf48b72811be4c360f0323950183b6816ded56782a3c08f322064736f6c634300080f0033",
  "immutableReferences": {},
  "source": "// SPDX-License-Identifier: MIT\npragma solidity >=0.4.22 <0.9.0;\n\nimport \"../node_modules/@openzeppelin/contracts/token/ERC721/ERC721.sol\";\n\ncontract CowCoin is ERC721 {\n    \n    // Permission address at create Certificate and send new cert to Customers.\n    uint public goverCount = 0;\n    uint public cowCertCount = 0;\n    \n    address [] government;\n    \n    struct AdAdmin{\n        uint256 userId;\n        address government;\n        string username;\n    }\n    \n    struct AddCertCoin {\n        uint256 id;\n        string tokendId;\n        string cowCertlist;\n        string imgPath;\n    }\n    \n    mapping(uint256 => AdAdmin) public taskcows;\n    mapping(uint256 => AddCertCoin) public blacklistedCowCert;\n    mapping(uint256 => bool) public blockCowcert;\n    // mapping(uint256 => bool) internal blockCowcert;\n\n   \n    \n    constructor()   \n    ERC721(\"SmartCowcert\",\"SMARTCOWCERT\")\n    {\n        taskcows[goverCount] = AdAdmin(goverCount,msg.sender,\"Suradath\");\n    }\n\n    modifier onlyGovernment() {\n          for(uint i = 0; i <= goverCount; i++)\n        {\n            if(taskcows[i].government == msg.sender)\n            {\n                require(msg.sender == taskcows[i].government ,\"You are not Owner!\");\n                _;\n            }\n        }\n        // require(msg.sender == taskcows[goverCount].government ,\"You are not Owner!\");\n        // _;\n    }\n\n    event TaskCreatedadmin(\n        uint256 userId,\n        address government,\n        string username\n    );\n    event TaskCreateCowCert(\n        uint256 id,\n        string tokendid,\n        string cowCertlist,\n        string imgPath\n    );\n    \n    // Add admin address by governments add to admin\n    function addAdmin(address _government,string memory _username) public {\n        // require(msg.sender == taskcows[goverCount].government,\"You not create Admin\");\n        for(uint256 i = 0; i <= goverCount; i++)\n        {\n            if(taskcows[i].government == msg.sender)\n            {\n                require(msg.sender == taskcows[i].government,\"You not create Admin\");\n                goverCount++;\n                taskcows[goverCount] = AdAdmin(goverCount,_government,_username);\n                emit TaskCreatedadmin(goverCount,_government,_username);\n            }        \n        }\n        \n    }\n    \n    function tokenizedCowCert(address _realEstateOwner, string memory _tokenId,string memory _cowCertlist,string memory _imgPath)\n        public\n        onlyGovernment\n    {\n        cowCertCount++;\n        blacklistedCowCert[cowCertCount] = AddCertCoin(cowCertCount,_tokenId,_cowCertlist,_imgPath);\n        // super._mint(_realEstateOwner, _tokenId);\n        super._mint(_realEstateOwner,cowCertCount);\n        emit TaskCreateCowCert(cowCertCount,_tokenId,_cowCertlist,_imgPath);\n    }\n\n    // function getTokenizedCowCer(uint256 _id) public view returns(uint256,uint256,string memory,string memory){\n    //     return blacklistedCowCert(_id);\n    // }\n\n    // Stop or block Cowcoin Nft from buying or selling.\n    function disableTransfer(uint256 _tokenId) public onlyGovernment {\n        blockCowcert[_tokenId] = true;\n    }\n    \n    function enableTransfer(uint256 _tokenId) public onlyGovernment {\n        blockCowcert[_tokenId] = false;\n    }\n\n    // Setup sell  Customer Payment to sell  Customer type P2P \n    function safeTransferFrom(\n        address _from,\n        address _to,\n        uint256 _tokenId\n    ) public virtual override {\n        require(blockCowcert[_tokenId] == false);\n        super.safeTransferFrom(_from, _to, _tokenId);\n    }\n\n}",
  "sourcePath": "/Users/noobtoninja/Job/Programe/NFTv2/contracts/CowCoin.sol",
  "compiler": {
    "name": "solc",
    "version": "0.8.15+commit.e14f2714.Emscripten.clang"
  },
  "schemaVersion": "3.4.3",
  "updatedAt": "2022-07-25T17:14:08.167Z",
  "networkType": "ethereum",
  "devdoc": {
    "kind": "dev",
    "methods": {
      "approve(address,uint256)": {
        "details": "See {IERC721-approve}."
      },
      "balanceOf(address)": {
        "details": "See {IERC721-balanceOf}."
      },
      "getApproved(uint256)": {
        "details": "See {IERC721-getApproved}."
      },
      "isApprovedForAll(address,address)": {
        "details": "See {IERC721-isApprovedForAll}."
      },
      "name()": {
        "details": "See {IERC721Metadata-name}."
      },
      "ownerOf(uint256)": {
        "details": "See {IERC721-ownerOf}."
      },
      "safeTransferFrom(address,address,uint256,bytes)": {
        "details": "See {IERC721-safeTransferFrom}."
      },
      "setApprovalForAll(address,bool)": {
        "details": "See {IERC721-setApprovalForAll}."
      },
      "supportsInterface(bytes4)": {
        "details": "See {IERC165-supportsInterface}."
      },
      "symbol()": {
        "details": "See {IERC721Metadata-symbol}."
      },
      "tokenURI(uint256)": {
        "details": "See {IERC721Metadata-tokenURI}."
      },
      "transferFrom(address,address,uint256)": {
        "details": "See {IERC721-transferFrom}."
      }
    },
    "version": 1
  },
  "userdoc": {
    "kind": "user",
    "methods": {},
    "version": 1
  }
}